:020000040800F2
:10000000E00400200101000869220008A520000882
:1000100065220008F9010008C9230008000000005B
:100020000000000000000000000000007122000835
:10003000FD010008000000006D2200087522000884
:100040001B0100081B0100081B0100081B01000820
:100050001B0100081B0100081B0100081B01000810
:100060001B0100081B0100081B0100081B01000800
:100070001B0100081B0100081B0100081B010008F0
:100080001B0100081B0100081B0100081B010008E0
:100090001B0100081B0100081B0100081B010008D0
:1000A0001B0100081B0100081B0100081B010008C0
:1000B0001B0100081B0100081B0100081B010008B0
:1000C0001B0100081B0100081B0100081B010008A0
:1000D0001B010008BD2300081B0100081B010008CC
:1000E0001B0100081B0100081B010008DFF80CD0F1
:1000F00000F050F800480047CD230008E00400203D
:100100000648804706480047FEE7FEE7FEE7FEE7B1
:10011000FEE7FEE7FEE7FEE7FEE7FEE7AD220008AA
:10012000ED000008421C10F8011B0029FBD1801AC9
:1001300070472DE9F05F0546002092469B468846B1
:100140000646814640241BE0284641464746224653
:1001500000F041F853465A46C01A914110D3114657
:100160001846224600F028F82D1A67EB01084F4682
:1001700022460120002100F01FF817EB00094E4134
:10018000201EA4F10104DFDC484631462A464346DE
:10019000BDE8F09F064C074D06E0E06840F0010323
:1001A00094E8070098471034AC42F6D3FFF7A2FF5B
:1001B000B8290008D8290008202A04DB203A00FAD0
:1001C00002F1002070479140C2F1200320FA03F3AE
:1001D000194390407047202A04DB203A21FA02F0AC
:1001E0000021704721FA02F3D040C2F12002914071
:1001F0000843194670470000FEE700007047000002
:10020000EFF3108072B600BFFEE7000070B542F257
:100210000C060446C4F2020600F0FAFA3168C90777
:1002200018D13068800644BF202030603068C00696
:1002300007D43069C00704D1306840075CBF002094
:1002400070BD3068C00623D40020316849072BD424
:1002500034E000BF002C47D00546601C0ED130684A
:10026000C007DED03068C0071CBF30685FEAC070CE
:10027000D7D03068C007F2D1D3E700BF00F0C8FA8A
:10028000401BA04230D83068C007F7D1C9E700BF93
:1002900040F2B800C2F20000C16941F00201C16140
:1002A00010203168490709D540F2B801C2F20001B7
:1002B000CA6940F0040042F00102CA613169C9070D
:1002C00002D13060012070BD40F2B801C2F20001DD
:1002D000CA6942F00402CA61316921F00101316149
:1002E0003060012070BD00BF032070BD014690F852
:1002F0002100022816D10868D1E90FC3026822F054
:100300000E020260026822F001020260012000FA7F
:1003100003F2CCF8042081F821000020002281F8AB
:1003200020207047042088630120002281F82020CB
:100330007047000080B590F82110022924D102688E
:10034000116821F00E0111602F211368C4F202011F
:100350008A4240F20401C4F2020123F00103136057
:1003600016DD3023C4F202039A421DD04423C4F2A6
:1003700002039A421CD05823C4F202039A421DD1B0
:100380004FF4803322E000BF04218163012080BD4F
:100390000823C4F202039A420ED01C23C4F20203C3
:1003A0009A420BD1102311E04FF480730EE000BF8E
:1003B0004FF480530AE000BF012307E001F1680C0D
:1003C0004FF08073624508BF4FF480130B6001212A
:1003D00080F82110426B002180F820100AB190476C
:1003E0000021084680BD0000B0B5044600F010FAB8
:1003F000054640F20000C2F200000078611C18BF00
:10040000044400BF00F004FA401BA042FAD3B0BD80
:100410002DE9F04381B040F2B806C2F20006327E08
:10042000012A03D1022001B0BDE8F0830546012076
:100430002C6830764CF250308846FFF7E7FE022CED
:100440001CD100284ED1002042F21004F061C4F209
:100450000204206840F004002060206840F0400062
:1004600020604CF25030FFF7D1FE216821F00401EA
:1004700021600021317601B0BDE8F08390BB4FF0E0
:10048000FF30C8F80000D5E9027007EB80208742F2
:1004900028D242F21004C4F202044FF0000900BF57
:1004A000C6F81C90206840F0020020606760206859
:1004B00040F0400020604CF25030FFF7A7FE21686A
:1004C00021F00201216098B9D5E9020107F58067A2
:1004D00000EB81208742E3D300200021317601B078
:1004E000BDE8F08301200021317601B0BDE8F08342
:1004F000C8F800700021317601B0BDE8F08300003B
:1005000042F21001C4F20201086840F080020020AB
:100510000A6070472DE9F04F81B040F2B809C2F28D
:100520000009924699F81820012A03D1022001B04F
:10053000BDE8F08F8046012089F818004CF2503059
:100540009B460E46FFF762FEA0BB404642F21007F4
:10055000B8F1020F18BF0420C4F20207B8F1010F6E
:1005600008BF404645424FF000080024C4F1200176
:10057000C9F81C802AFA04F00BFA01F13A68084322
:10058000B4F1200158BF2BFA01F042F001013960AB
:1005900026F8020B4CF25030FFF738FE396801356F
:1005A00021F0010248F100013A6018B9002904F174
:1005B0001004DBD0002189F8181001B0BDE8F08FDD
:1005C00042F20400C4F20200C16809065CBF0020C8
:1005D000704740F22311C4F26751016048F6AB1135
:1005E000CCF6EF510160C068C0B2C009704700008E
:1005F0002DE9F04F82B041F20042C4F201020E68D0
:100600000423904208BF0323002E009300F0F680DD
:1006100040F2004C4FF6FF7E0022C4F2010C012490
:10062000C1F2100E4FF0000A4FF0000947E000BF82
:10063000012502F00C040F27A7402BEA070705FA53
:1006400004F43C4343F82640D1F804B040F20C4592
:100650005FEACB23DCF8083054BF23EA080343EAFF
:100660000803C4F20105CCF808302B685FEA8B243C
:1006700054BF23EA080343EA08032B605FEA8B3484
:10068000DCF8043054BF23EA080343EA08035FEAB6
:10069000CB34CCF80430DCF800304FF0010454BF08
:1006A00023EA080343EA0803CCF800300E680AF195
:1006B000010A36FA0AF302F1040200F09F8004FAFC
:1006C0000AF816EA080FF1D04B68734512DC122BBA
:1006D00056D8DFE803F0350B454955555555555566
:1006E000555555555555554D510000BFD1F80C90F5
:1006F00046E000BF4FF6FF75C1F22105AB420FDCAB
:100700000025C1F21105AB421AD00025C1F2120535
:10071000AB4215D00025C1F22105AB4210D02FE02D
:100720000025C1F22205AB420AD00025C1F23105F5
:10073000AB4205D00025C1F23205AB4220D100BF4B
:100740008B684BB1012B14BFC0F81480C0F8108027
:100750004FF0080914E000BF4FF0040910E000BF9B
:10076000CB6803F108090BE04FF0000908E000BF77
:10077000CB6803F1040903E0CB6803F10C0900BF67
:1007800013460546BAF1080F24BF203B04352E68F6
:100790000F279F40BE4309FA03F333432B60CB7905
:1007A000DB067FF583AF41F21804C4F2020423682C
:1007B0004FEA9A0643F001032360236840F60004E1
:1007C00003F001030193019BACF57E7353F826B04F
:1007D000C4F20104A0420FD040F60044C4F2010468
:1007E000A0423FF425AF41F20004C4F20104009D91
:1007F000A04208BF02251CE700251AE702B0BDE8A9
:10080000F08F00008068084018BF0120704700008A
:1008100040F2D800C2F200000068704740F20000C9
:1008200040F2D801C2F20000C2F2000100780A686A
:10083000104408607047000080B542F20000C4F226
:100840000200016841F010010160032000F08AF805
:100850000F2000F005F800F027F8002080BD000010
:1008600070B540F20006C2F2000640F2080132788C
:10087000C2F200014FF47A730968B3FBF2F2044646
:10088000B1FBF2F1084600F05FFB0F2C4FF00105C1
:1008900008D838B94FF0FF3021460022002500F07B
:1008A00035F87460284670BD82B041F21800C4F279
:1008B00002000168022241F001010160016801F0BB
:1008C000010101910199416841F080514160406806
:1008D00000F08050009000980420C4F201000168EC
:1008E00062F31A61016002B070470000002848BF3F
:1008F000704700F01F01012202FA01F14EF20012CE
:100900004009CEF2000242F82010704710B54EF6B2
:100910000C5CCEF2000CDCF80030C3F3022E8EF03B
:100920000704042C28BF0424BEF103034FF0FF3E4C
:100930000EFA04F438BF0023A14399400EFA03F3E2
:100940009A43114300F00F02043A624409010C3249
:1009500000F16043B0F1FF3FC8BF03F5644211707E
:1009600010BD00004EF60C51CEF200010A684FF6A1
:10097000FF031A4060F30A2242F0806040F0FD70ED
:10098000086070472DE9F04381B0002800F08580B1
:1009900042F20008C4F202080446D8F800000D46EE
:1009A00000F0070088420CD2D8F8000020F00700C1
:1009B0002843C8F80000D8F8000000F00700A8425B
:1009C0006BD1206841F204098107C4F2020917D5EE
:1009D000410705D5D9F8001041F4E061C9F80010CD
:1009E000010705D5D9F8001041F46051C9F800108D
:1009F000D9F80010A26821F0F0011143C9F80010E5
:100A0000C00741D1D8F8000000F00700A8420CD977
:100A1000D8F8000020F007002843C8F80000D8F8F4
:100A2000000000F00700A84237D12068410707D531
:100A3000D9F80010E26821F4E0611143C9F8001010
:100A4000000708D5D9F80000216920F4605040EA79
:100A5000C100C9F80000D9F8002002F00C000828F5
:100A600041F20020C0F27A0050D142F66013C2F386
:100A70008341C0F60003595CD2033BD440F600101A
:100A8000C0F23D00484341E0606802280AD00128D6
:100A90002AD159F8041C890308D4012001B0BDE80B
:100AA000F08300BF59F8041C8901F6D5D9F800106D
:100AB00021F003010843C9F80000FFF7A9FE06462C
:100AC00041F28837D9F80000616800F00C00B0EB03
:100AD000810F97D0FFF79CFE801BB842F2D903200C
:100AE00001B0BDE8F08300BF59F8041C8907D4D5D4
:100AF000DCE700BFD9F8002042F65E13C2F34042A3
:100B0000C0F600039A5C4843B0FBF2F0D9F800103D
:100B100042F64612C1F30311C0F60002515C40F2E6
:100B2000080220FA01F140F20400C2F2000000685D
:100B3000C2F200021160FFF793FE002001B0BDE891
:100B4000F083000040F2080041F20401C2F200000C
:100B5000C4F202010068096842F65612C1F302218C
:100B6000C0F60002515CC8407047000040F2080027
:100B700041F20401C2F20000C4F2020100680968F7
:100B800042F65612C1F3C221C0F60002515CC840C1
:100B9000704700002DE9F04182B0002868D004467B
:100BA000007841F20006C007C4F2020625D0706842
:100BB00000F00C0004281BD0706800F00C0008281E
:100BC00002D17068C00313D46068002800F0688107
:100BD000B0F5A02F00F07C81B0F5803F00F07C8163
:100BE000306820F480303060306820F4802076E176
:100BF0003068800301D56068D0B32078800718D5AD
:100C0000706810F00C0F07D0706800F00C00082816
:100C10006ED17068C0036BD43068800702D520693C
:100C2000012825D13068616920F0F80040EAC10050
:100C30003060207800071FD42078400732D4E5695F
:100C400095B1706800F00C00082840F08F80012DED
:100C50000ED07068216A00F480328A4208D1616A3D
:100C600000F47010884203D1002002B0BDE8F0818A
:100C7000012002B0BDE8F081A069002862D0002008
:100C8000C4F242200121C0F88014FFF7C1FD0546DF
:100C9000706A800700F18C80FFF7BAFD401B0228C4
:100CA000F6D92AE1F06910F0805808D1F06940F0D7
:100CB0008050F061F06900F080500090009847F299
:100CC0000007C4F200073868C00529D4386840F42A
:100CD00080703860FFF79CFD054600BF3868C0058E
:100CE0001ED4FFF795FD401B6428F7D905E100BF2E
:100CF0002069002840F20000C4F2422000F0828007
:100D000001210160FFF784FD054600BF30688007C0
:100D10003FF588AFFFF77CFD401B0228F6D9ECE0D9
:100D2000E068002800F08080052800F09780012806
:100D300000F09880306A20F001003062306A20F0C4
:100D4000040092E00020C4F242200021C0F8801488
:100D5000FFF75EFD054600BF706A80077FF56CAF48
:100D6000FFF756FD401B0228F6D9C6E00027C4F263
:100D7000422700203866FFF74BFD022D05460BD1B8
:100D80003068800140F1BE80FFF742FD401B022821
:100D90004FF00300F4D968E7306880017FF564AF55
:100DA000FFF736FD401B02284FF00300F4D95CE743
:100DB00040F20800C2F20000006844F6D351C1F2CC
:100DC0006201A0FB0101480A019000BF00BF019829
:100DD000411E002801913FF42FAF00BF0198411E32
:100DE000002801913FF428AF00BF0198411E002860
:100DF00001913FF421AF00BF0198411E00280191ED
:100E0000E4D119E700210160FFF702FD054600BFAC
:100E1000306880077FF50DAFFFF7FAFC401B022812
:100E20004FF00300F4D920E7306A20F0010030626F
:100E3000306A20F004003062FFF7EAFC054641F218
:100E4000883700BF306A800720D5FFF7E1FC401BE0
:100E5000B8424FF00300F5D907E700BF306A40F011
:100E600004003062306A40F001003062FFF7D0FCCD
:100E7000054641F2883700BF306A800706D4FFF785
:100E8000C7FC401BB842F7D937E000BFB8F1000FEC
:100E90007FF4D5AEF06920F08050F061CFE600BF5E
:100EA000306820F480303060306820F4802030607A
:100EB000FFF7AEFC054600BF306880037FF59DAEAE
:100EC000FFF7A6FC401B64284FF00300F4D9CCE6E2
:100ED000306840F480203060306840F4803030600A
:100EE000FFF796FC054600BF306880033FF585AEEE
:100EF000FFF78EFC401B6428F6D9032002B0BDE842
:100F0000F08100BF206AB0F5803F05D17168A2680A
:100F100021F40031114371607168626A21F4741127
:100F200010430843706001203866FFF771FC0446E7
:100F3000306880013FF598AEFFF76AFC001B02287D
:100F40004FF00300F4D990E6411E0020B0EB116F82
:100F50001CBF012070474EF21002CEF20002516019
:100F60004EF62351CEF20001F0230B700721906062
:100F70001160704710B590F83C20012A4FF0020232
:100F800033D080F83D200268D2F804E0D2F808C0DF
:100F90000C682EF07003234340F2FF74C4F2000487
:100FA000A24253600ADCB2F1804F13D040F20043FA
:100FB000C4F200039A420DD011E000BF42F6004394
:100FC000C4F201039A4205D040F60003C4F20003C4
:100FD0009A4204D149682CF08003194391600121A1
:100FE000002280F83D1080F83C20104610BD000023
:100FF000002804BF0120704710B5044690F83D005A
:1010000028B9002084F83C00204600F067F8022050
:1010100084F83D00206840F2FF730268C4F20003C8
:1010200042F6004C9842C4F2010C15DCB0F1804F3E
:101030001AD040F20041C4F20001884214D0984214
:1010400018DCB0F1804F1DD040F20041C4F2000125
:10105000884217D01AE000BF604505D040F6000175
:10106000C4F200018842EAD1A16822F070020A436A
:101070009842E6DD604505D040F60001C4F200016B
:10108000884203D1216922F440720A43A36922F005
:101090008001D4F804E0E268194360450160C2624F
:1010A000C0F828E002D16169CCF83010012141611B
:1010B000002084F8461084F83E1084F83F1084F82D
:1010C000401084F8411084F8421084F8431084F8EA
:1010D000441084F8451084F83D1010BD81B00068BC
:1010E000B0F1804F02D001B0704700BF41F21C0048
:1010F000C4F20200016841F001010160006800F0E3
:1011000001000090009801B07047000080B590F891
:101110003C20012A4FF0020200F0C28080F83D20FE
:10112000D0F800C04FF67772DCF8083023EA0202EC
:10113000CCF808200B684F2B28DC1F2B44DD202B1C
:1011400045D0302B43D0402B40F0AC80D1F804E0A8
:10115000C968DCF82030DCF8202022F00102CCF84D
:101160002020DCF8182022F0F00242EA011123F0DE
:101170000A0242EA0E02CCF81810CCF82020DCF863
:10118000081041F0470121F0300180E06F2B27DD8E
:10119000B3F5005F48D0B3F5805F7AD0702B40F094
:1011A0008180D1E901E3C968DCF8082043EA0E0335
:1011B00022F47F4243EA01211143CCF80810DCF805
:1011C000081041F0770162E00BB1102B6AD1DCF816
:1011D000081021F07001194341F0070157E000BFEA
:1011E000502B35D0602B5DD1D1F804E0C968DCF814
:1011F0002030DCF8202022F01002CCF82020DCF88F
:10120000182022F4704242EA013123F0A00242EA9F
:101210000E12CCF81810CCF82020DCF8081041F0A1
:10122000670121F0100132E0D1E901E3C968DCF87F
:10123000082043EA0E0322F47F4243EA01211143CE
:10124000CCF80810DCF8081041F480411FE000BF22
:10125000D1F804E0C968DCF82030DCF8202022F066
:101260000102CCF82020DCF8182022F0F00242EA3B
:10127000011123F00A0242EA0E02CCF81810CCF851
:101280002020DCF8081041F0570121F02001CCF8B3
:1012900008100022012180F83D10002180F83C1048
:1012A000104680BD0122F5E72DE9F04390F83C306F
:1012B000012B04BF0220BDE8F0834FEAB202032AEB
:1012C0003CD8DFE802F003437FB900BF036842F671
:1012D00000461D6A1A6AC4F2010622F001021A626F
:1012E0001A465C6852F818CFB3428E68D1F800E015
:1012F00025F0020545EA06050CD1CE68D1E905784E
:1013000024F4407425F00C0526F004063C433543D4
:1013100044EA08042CF0730747EA0E075C609F61FB
:101320004F6809695F631D629F6947F008079F6105
:101330009F6927F004079F61AEE000BF01210022F2
:1013400080F83C200846BDE8F08300BF036842F601
:1013500000461D6A1A6AC4F2010622F010021A62DF
:101360001A46D3F804C052F8184FB3428E68D1F829
:1013700000E025F0200545EA06150FD1CE68D1E939
:1013800005986FF0400707EA06162CF4406725F031
:10139000C00547EA8907354347EA880C24F4E64448
:1013A00044EA0E27C3F804C09F614F6809699F6330
:1013B0001D629F6947F400679F619F6927F48067FA
:1013C0009F6168E0036842F600461D6A1A6AC4F22B
:1013D000010622F480721A621A46D3F804C052F849
:1013E0001CEFB3428E680C6825F4007545EA0625AB
:1013F0000FD1CE68D1E90598360240F2FF47BE43CF
:101400002CF4405725F4406547EA0917354347EA6D
:10141000081C2EF073072743C3F804C0DF614F6830
:101420000969DF631D62DF6947F00807DF61DF6973
:1014300027F00407DF612FE0036842F60047D3F886
:1014400020C01A6AC4F2010722F480521A621A46B6
:101450005C6852F81C5FD1F800E08E68BB4204D192
:101460004F6924F4804444EA87142CF4005747EA77
:10147000063725F4E64646EA0E265C60DE614E68D5
:1014800009691E641F62DF6947F40067DF61DF6975
:1014900027F48067DF610902136819431160002196
:1014A000002280F83C200846BDE8F083002804BFF5
:1014B0000120704710B5044690F83D0028B900207F
:1014C00084F83C00204600F067F8022084F83D00D4
:1014D000206840F2FF730268C4F2000342F6004C39
:1014E0009842C4F2010C15DCB0F1804F1AD040F2E2
:1014F0000041C4F20001884214D0984218DCB0F1D7
:10150000804F1DD040F20041C4F20001884217D044
:101510001AE000BF604505D040F60001C4F20001AA
:101520008842EAD1A16822F070020A439842E6DDBF
:10153000604505D040F60001C4F20001884203D1A5
:10154000216922F440720A43A36922F08001D4F891
:1015500004E0E268194360450160C262C0F828E017
:1015600002D16169CCF8301001214161002084F87A
:10157000461084F83E1084F83F1084F8401084F838
:10158000411084F8421084F8431084F8441084F821
:10159000451084F83D1010BD7047000041B1082986
:1015A00010D0042914BF00F1410200F13F020BE00A
:1015B00090F83E20012A1CBF01207047022280F8CB
:1015C0003E2013E000F140021278012A1CBF0120E6
:1015D00070470222082907D0042914BF80F841204F
:1015E00080F83F2002E000BF80F84020006801F052
:1015F0001F010122036A8A4023EA02010162036A91
:1016000042F64441C4F201011A43A1F14403984255
:1016100002620FD040F2FF71C4F20001884213DC75
:10162000B0F1804F1CD040F20041C4F2000188426A
:1016300016D01CE00A6842F400420A6040F2FF71D2
:10164000C4F200018842EBDD42F60041C4F2010120
:10165000884205D040F60001C4F20001884206D15C
:10166000816801F00701062904BF00207047016866
:1016700041F0010101600020704700007047000048
:1016800070470000B0B582B0044600680168C368C6
:10169000426901F02F05202D03F0200506D12DB160
:1016A000204602B0BDE8B04000F008BE5FEA017C11
:1016B0001EBF02F0010E03F4907212EB0E0255D120
:1016C000226B012A05D111F0100218BF13F010028D
:1016D00036D10A0622D513F080021FD094F84110AB
:1016E000212941D1A168B1F5805F03D12169002989
:1016F00000F07282216A4A1C226209784160E18C02
:1017000001390A04E1842FD1C16821F08001C16050
:10171000C16841F04001C16002B0B0BD490623D5A7
:1017200013F0400120D0C16821F04001C1602021A8
:10173000204684F8411002B0BDE8B04000F0B0BCD3
:10174000002101910168019141680191019941696C
:10175000490600F18F80A18DE28DE38D002B1CBF27
:10176000891A5FEA01420CD102B0B0BDCA0718BFA6
:1017700013F4807240F038814A0700F13B8140E168
:10178000206850E8030F226820F4907042E80303B9
:10179000DBB1206850E8030F226820F4907042E823
:1017A000030393B1206850E8030F226820F490707F
:1017B00042E803034BB1206850E8030F226820F48D
:1017C000907042E80303002BDAD1206850E8050F3F
:1017D000226820F0010042E80503DBB1206850E8F0
:1017E000050F226820F0010042E8050393B120684C
:1017F00050E8050F226820F0010042E805034BB1D4
:10180000206850E8050F226820F0010042E8050337
:10181000002BDAD1202084F84200002020632068C9
:1018200050E8030F226820F0100042E80303DBB108
:10183000206850E8030F226820F0100042E80303FC
:1018400093B1206850E8030F226820F0100042E8AE
:1018500003034BB1206850E8030F226820F010000A
:1018600042E80303002BDAD1022289B220466263E8
:10187000B4E000BFE16B0A68526893B2002B3FF4FA
:1018800073AFA58DAB42BFF46FAFE28589692029A4
:1018900000F09D8050E8030F216820F4807041E83B
:1018A0000302EAB1206850E8030F216820F4807039
:1018B00041E80302A2B1206850E8030F216820F438
:1018C000807041E803025AB1206850E8030F216894
:1018D00020F4807041E8030212B12068DAE700BF0B
:1018E000206850E8050F216820F0010041E805025A
:1018F000DAB1206850E8050F216820F0010041E8C6
:10190000050292B1206850E8050F216820F001001F
:1019100041E805024AB1206850E8050F216820F02F
:10192000010041E80502002ADAD1206850E8050FDD
:10193000216820F0400041E80502DAB1206850E853
:10194000050F216820F0400041E8050292B12068AF
:1019500050E8050F216820F0400041E805024AB137
:10196000206850E8050F216820F0400041E805029A
:10197000002ADAD1202084F8420000202063206869
:1019800050E8030F216820F0100041E80302DAB1AB
:10199000206850E8030F216820F0100041E803029E
:1019A00092B1206850E8030F216820F0100041E850
:1019B00003024AB1206850E8030F216820F01000AC
:1019C00041E80302002ADAD1E06BFEF78FFC022027
:1019D0006063A08DE18D401A81B2204602B0BDE85F
:1019E000B040FFF74BBE00BF626C42F00102626480
:1019F0004A0706D5BEF1000F03D0626C42F0020226
:101A000062648A0706D5BEF1000F03D0626C42F013
:101A100004026264BCF1000F06D555EA0E0203D041
:101A2000626C42F008026264626C002A3FF49CAE71
:101A300011F0200118BF002D03D0204600F03EFC1D
:101A400020684169626C01F0400102F008028918C7
:101A500000F0A28050E8030F216820F4907041E864
:101A60000302C2B3206850E8030F216820F490708D
:101A700041E803027AB3206850E8030F216820F49C
:101A8000907041E8030232B3206850E8030F2168E8
:101A900020F4907041E80302EAB12068DAE700BF61
:101AA000206850E8050F216820F0010041E8050298
:101AB000DAB1206850E8050F216820F0010041E804
:101AC000050292B1206850E8050F216820F001005E
:101AD00041E805024AB1206850E8050F216820F06E
:101AE000010041E80502002ADAD1206B012824D147
:101AF000206850E8030F216820F0100041E803023D
:101B0000DAB1206850E8030F216820F0100041E8A6
:101B1000030292B1206850E8030F216820F0100002
:101B200041E803024AB1206850E8030F216820F021
:101B3000100041E80302002ADAD1202084F8420094
:101B4000002020632068416949063FD550E8050F11
:101B5000216820F0400041E805022AB3206850E8DF
:101B6000050F216820F0400041E80502E2B120683D
:101B700050E8050F216820F0400041E805029AB1C5
:101B8000206850E8050F216820F0400041E8050278
:101B900052B12068DAE700BF2046FFF771FD002050
:101BA000606402B0B0BD00BFE06B78B142F2B12119
:101BB000C0F600014163FEF7BDFB00283FF4D4AD41
:101BC000E06B416B02B0BDE8B0400847204602B070
:101BD000BDE8B040FFF754BD216A31F8022B6FF326
:101BE0005F22426021628AE5002804BF012070471D
:101BF00010B5044690F8410028B9002084F8400050
:101C0000204600F061F8242084F841002068D4E9DF
:101C10000212C36823F40053C360036923F44053E2
:101C20001A430261D4E904231143C268194341F203
:101C30000C639A431143C1604169A26921F4407168
:101C4000114343F60002C4F201029042416103D005
:101C5000FEF778FF02E000BFFEF788FF62681921F7
:101C600048439100B0FBF1F048F21F51C5F2EB116F
:101C7000A0FB01235A096FF0630302FB0300322328
:101C800003EB0010A0FB0101F02303EA51132068CD
:101C900003EB0212C1F3431111448160016921F485
:101CA00090410161416921F02A014161C16841F41B
:101CB0000051C16000202021606484F8411084F844
:101CC0004210606310BD000070B586B040F600049D
:101CD000C4F20104006804F54051002688420496CD
:101CE00002D006B070BD00BF41F21800C4F202007D
:101CF000016802AD41F480410160016801F4804156
:101D000001910199016841F00401016000682946D0
:101D100000F00400019001984FF40070029002203E
:101D20000390032005902046FEF762FC4FF480608C
:101D3000CDE90206204629460496FEF759FC2520E7
:101D400000210022FEF7E2FD2520FEF7CFFD06B0C0
:101D500070BD000090F84230202B1CBF022070475D
:101D600000294FF0010318BF002A01D1184670471F
:101D700000230363816222218285C285436480F847
:101D800042100169006819B1C16841F48071C160F5
:101D90004169002341F001014161C16841F0200126
:101DA000C16018467047000040F27001C2F20001A5
:101DB000884218BF7047F0B585B040F21007C2F2F4
:101DC00000073C4614F8060FF97900EB800001EBA0
:101DD00040004FF6E031CFF6FF7101EB400040F2DA
:101DE0002801C2F2000109683881B88080B2886396
:101DF00042F689116D464208C0F60001284600F0FF
:101E000063FC2846FEF78EF940F27006C2F2000627
:101E100082B2304629464FF0FF3300F00DF8012022
:101E200038707870304621460222FFF793FF05B0E4
:101E3000BDE8F040704700002DE9F04381B0044652
:101E400090F84100202840F0B1800F4600294FF063
:101E5000010000F0D0801646002A00F0CC804FF040
:101E6000000821201D46C4F8448084F84100FEF794
:101E7000CFFCA684E684A1680646B1F5805F05D153
:101E80002069002814BF3846B8460746E18C206810
:101E9000002900F08F8005F101090AE047B317F827
:101EA000011B4160E18C0139E184E18C002900F0E3
:101EB000818001680906F1D4B9F1000F0AD0EDB1B3
:101EC000FEF7A6FC801BA84218D820680168090606
:101ED000F6D5E3E701680906E0D4016809065CBFAE
:101EE00001685FEA0161D9D401680906F2D5D5E736
:101EF00038F8021B00276FF35F21D2E7206850E813
:101F0000030F216820F4D07041E80302BAB32068BF
:101F100050E8030F216820F4D07041E8030272B347
:101F2000206850E8030F216820F4D07041E80302D4
:101F30002AB3206850E8030F216820F4D07041E8EC
:101F40000302002ADAD11AE0206850E8050F216860
:101F500020F0010041E80502DAB1206850E8050FE1
:101F6000216820F0010041E8050292B1206850E8A4
:101F7000050F216820F0010041E805024AB1206800
:101F800050E8050F216820F0010041E80502002A11
:101F9000DAD1202084F8410084F84200002084F83F
:101FA0004000032001B0BDE8F08300BF022001B073
:101FB000BDE8F0830168490619D4FDB1691C0DD153
:101FC0000168490613D4016849065CBF01685FEAED
:101FD00041610CD401684906F2D508E0FEF718FC0F
:101FE000801BA8420AD8206800684006F6D5202049
:101FF00084F84100002001B0BDE8F083206850E87B
:10200000030F216820F4D07041E80302E2B3206896
:1020100050E8030F216820F4D07041E803029AB31E
:10202000206850E8030F216820F4D07041E80302D3
:1020300052B3206850E8030F216820F4D07041E8C3
:102040000302002ADAD11FE0206850E8050F21685A
:1020500020F0010041E80502002A9AD0206850E8EB
:10206000050F216820F0010041E80502002A3FF435
:1020700090AF206850E8050F216820F0010041E88A
:102080000502002A3FF485AF206850E8050F21685B
:1020900020F0010041E80502002AD5D179E70000CF
:1020A00070470000FEE7000080B586B0002041F2D6
:1020B00018010590C4F202010A6842F020020A6089
:1020C0000A6802F020020192019A0A6842F00402B2
:1020D0000A600A6802F004020192019A0A6842F05A
:1020E00008020A60096801F00801019101992421A0
:1020F000CDE902100120049040F60000C4F2010076
:1021000002A9FEF775FA06B080BD000010B594B0C4
:1021100040F228000021C2F200004FF08042472325
:1021200040F2F3140E91CDE90C110991CDE907119C
:10213000CDE90511CDE90311CDE90111C0E9002375
:10214000C0E9021401618161FEF752FF002818BF47
:10215000FEF756F84FF480500B9040F22800C2F280
:1021600000000BA9FEF7D2FF002818BFFEF748F8C1
:1021700040F22800C2F20000FFF798F9002818BFCB
:10218000FEF73EF840F228000024C2F2000008A941
:10219000CDE90844FEF7EEFE002818BFFEF730F840
:1021A0006020CDE901040394059440F22804C2F2B2
:1021B000000401A920460422FFF776F8002818BF82
:1021C000FEF71EF820680021B0F1804F129101D077
:1021D00014B010BD41F21800C4F20200016841F0D1
:1021E00008010160006810A900F008000F900F9826
:1021F0000820109002201190139040F60040C4F285
:102200000100FEF7F5F90420C4F2010001684FF661
:10221000FF42CFF6FF02114041F0E06141F48071CE
:10222000016014B010BD000080B540F2700043F6AC
:102230000001C2F20000C4F2010100234FF00C0CB7
:102240004FF4E13280E80E00C0E90333C0E905C372
:10225000C361FFF7C9FC002808BF80BDBDE880400E
:10226000FDF7CEBFFEE70000FEE70000704700006C
:102270007047000010B540F21004C2F20004E0689C
:102280000130E060FEF7CAFAE06847F6D501C2F215
:10229000E961484348F637114FEAF000C0F24101C6
:1022A00088429CBF0120A07010BD00007047000054
:1022B000406A0021C185C184FFF7E2B981B090F87E
:1022C0004210222920D18368B3F5805F08D10169CB
:1022D000002965D000F128010A6803685B680AE0FC
:1022E000014651F8282F13B90369002BF5D0036874
:1022F0005B6803F07F0313700A6801320A60C18DC6
:1023000001390A04C18501D001B070470168CA686B
:1023100022F02002CA60CA6822F48072CA604A6948
:1023200022F001024A61202280F84220002242630A
:10233000036B012B3ED1026351E8031F026821F0B9
:10234000100142E803130168DBB151E8031F026882
:1023500021F0100142E80313016893B151E8031F13
:10236000026821F0100142E8031301684BB151E803
:10237000031F026821F0100142E803130168002BDB
:10238000DAD10A68D20606D5002200920A680092C5
:10239000496800910099818D01B0FFF76FB900BFC6
:1023A0000168826A49686FF35F2122F8021B82622A
:1023B000A5E700BF01B0FFF7F7BC000040F27000D6
:1023C000C2F20000FFF75EB9FEE700009EB0FEF724
:1023D00033FA00240120CDE90A44CDE908440590F0
:1023E00009904FF4E0104FF4803102250E9005A8BB
:1023F000CDE90614CDE90C51FEF7CCFB20B1EFF38B
:10240000108072B6FEE700BF0F20CDE900054FF443
:102410008060CDE90304684602210294FEF7B2FA17
:1024200020B1EFF3108072B6FEE700BF40F6000463
:1024300047F20005C4F20104C0F60005FFF734FEC0
:10244000FFF764FEFFF7F0FE288840F21008C2F2A2
:102450000008A8F80400B5F8000242F2C50BC8F85D
:102460000C00C00800FB0BF042F69A1105AD020DFE
:10247000C0F60001284600F027F92846FDF752FE75
:1024800040F27006C2F2000682B2304629464FF092
:10249000FF33FFF7D1FCB8F8040042F6891105AF0D
:1024A0004FF000094208C0F600013846C8F80C9009
:1024B00000F00AF93846FDF735FE82B2304639465B
:1024C0004FF0FF33FFF7B8FC40F22807C2F20007D5
:1024D0004FF0010A3846042188F800A0FFF75EF8A3
:1024E00008F1060130460222FFF734FCB8F8040078
:1024F000396842F67017C0F60007886303E000BF32
:102500003220FDF771FF20460421FEF77BF9B8BBAE
:10251000B8F80400C72833D840F22801C2F20001FD
:1025200009680230A8F80400886342F6891142085D
:102530002846C0F6000100F0C7F82846FDF7F2FD76
:1025400082B2304629464FF0FF33FFF775FC88F81A
:1025500000A0B8F80C003946C00800FB0BF0020DD3
:10256000284600F0B1F82846FDF7DCFD82B230467F
:1025700029464FF0FF33FFF75FFC7820FDF734FF6B
:1025800020462021FEF73EF9B8BBB8F80400A0B3FE
:1025900040F22801C2F2000102380968A8F80400DC
:1025A00080B2886342F6891142082846C0F60001CD
:1025B00000F08AF82846FDF7B5FD82B2304629467C
:1025C0004FF0FF33FFF738FC88F800A0B8F80C0094
:1025D0003946C00800FB0BF0020D284600F074F8E5
:1025E0002846FDF79FFD82B2304629464FF0FF3363
:1025F000FFF722FC7820FDF7F7FE98F80100A8B15C
:10260000B8F80C003946C00800FB0BF0020D284654
:1026100000F05AF82846FDF785FD82B2304629467B
:102620004FF0FF33FFF708FC88F8019098F800009E
:1026300008B347F20000C0F60000B8F8041000F537
:10264000A060C8E90401FDF7BBFFD8F81000694697
:10265000CDE9070A2846CDF81490CDF80090FDF793
:10266000D7FED8E904120220D317FDF753FFFDF778
:1026700047FF88F8009098F8020000283FF440AF28
:1026800047F20000C0F60000D8F80C1000F5E0603A
:10269000C8E90401FDF794FFD8F810006946CDE9B8
:1026A000070A2846CDF81490CDF80090FDF7B0FE4B
:1026B000D8E904120220D317FDF72CFFFDF720FF05
:1026C00088F802901CE700000FB4084B10B504A96D
:1026D00002AA039800F01CF8044602A9002000F0AA
:1026E0002DF9204610BC5DF814FB00003D290008C0
:1026F00002E008C8121F08C1002AFAD170477047CB
:10270000002001E001C1121F002AFBD17047000028
:102710002DE9FF4F8BB09A460F460446002606E08F
:1027200025280BD052460D999047641C761C2078C2
:102730000028F5D10FB03046BDE8F08F0025A9463E
:1027400001227D4900E0054314F8013F203B02FAD5
:1027500003F00842F7D120782E2817D114F8010F82
:1027600045F004052A280ED06FF02F022078A0F142
:10277000300109290AD809EB890102EB410100EB7C
:102780000109641CF2E757F8049B641C20786C284C
:102790000DD004DC4C2812D06A2811D104E0742832
:1027A0000DD07A280CD10AE045F4001507E06178D5
:1027B00045F48015814202D1641C05F58015641C26
:1027C000207869283ED006DC0028B3D063280BD0DF
:1027D000642804D136E0732810D075285CD05246A6
:1027E0000D999047761CA5E017F8040B8DF80000B2
:1027F00000208DF80100E846012003E057F8048B23
:102800004FF0FF3069074FF0000501D40AE06D1C5E
:102810004D450DDA8542FADB18F805100029F6D18E
:1028200006E06D1C8542FCDB18F805100029F8D184
:102830002E4404E018F8010B52460D9990476D1E86
:10284000F8D277E000200A90C5F302504FF00A0B4F
:1028500002280CD001CFC117021E71F100020CDA60
:102860000023D0EB030063EB01012D2208E0FF1DE4
:1028700027F00707F7E80201EEE72A0504D52B2227
:102880008DF82420012203E0EA070FD02022F7E789
:102890000DF12008089218E000200A90C5F30250BC
:1028A0004FF00A0B022803D001CF00210022EFE7EE
:1028B000FF1D27F00707F7E80201F7E75A460A9BD2
:1028C000FDF737FC303208F8012D50EA0102F5D14E
:1028D000ADEB080000F1200B680701D44FF00109AF
:1028E000D94502DDA9EB0B0000E000208146002560
:1028F00006E009A85246405D0D9990476D1C761C74
:1029000008988542F5DB04E0302052460D99904747
:10291000761CB9F10001A9F10109F5DC05E018F810
:10292000010B52460D999047761CBBF10001ABF1AB
:10293000010BF4DC641CFAE6092801000A68531C48
:102940000B601070704700000000000000000102E2
:102950000304060708090000000001020304010245
:1029600002030405060708090A0B0C0D0E0F1010D0
:10297000506F776572206F6E2074696D653A2025FF
:102980006C7520730D0A0D0A006272696768746EB7
:102990006573733A2025640D0A004C6173742050EE
:1029A0006F776572206F6E2074696D653A20256CB3
:1029B0007520730D0A000000D829000800000020CF
:1029C00010000000F0260008E82900081000002090
:1029D000D0040000002700080100000010000000E3
:0829E0000024F40000000000D7
:04000005080000ED02
:00000001FF
